:04000000B0EF00F06D
:100008005482FACF35F0FBCF36F0D9CF37F0DACFBC
:1000180038F0F3CF39F0F4CF3AF00E01BDA917EF5D
:1000280000F019EF00F024EF00F0C5A91EEF00F072
:1000380020EF00F024EF00F011EC10F0A2EF00F038
:10004800F2AC29EF00F02BEF00F0A2EF00F0C0A90E
:1000580030EF00F032EF00F049EF00F0C8A937EFB9
:1000680000F039EF00F049EF00F002D847EF00F058
:100078000500FA6E0001F351FD6EF451FE6EF55164
:10008800FF6EFA501200A2EF00F0C0AB4EEF00F086
:1000980050EF00F067EF00F0C8AB55EF00F057EFF6
:1000A80000F067EF00F002D865EF00F00500FA6E87
:1000B8000001F051FD6EF151FE6EF251FF6EFA50E3
:1000C8001200A2EF00F0C0AD6CEF00F06EEF00F090
:1000D80084EF00F0C8AD73EF00F075EF00F084EF27
:1000E80000F002D882EF00F00500FA6E1F50FD6E96
:1000F8002050FE6E2150FF6EFA501200A2EF00F061
:10010800C0AF89EF00F08BEF00F0A2EF00F0C8AFAE
:1001180090EF00F092EF00F0A2EF00F002D8A0EF0D
:1001280000F00500FA6E0001E551FD6EE651FE6E25
:10013800E751FF6EFA501200A2EF00F03AC0F4FF48
:1001480039C0F3FF38C0DAFF37C0D9FF36C0FBFF2C
:0C01580035C0FAFF54921100FDEF0CF0CE
:100F000000FE1800000000D61B00BA1C005A1F008B
:100F10009C1F00C81F00000000000000000000002F
:100F200000000000000000000000000000000000C1
:100F300000000000000000E81E00000000C61E00C7
:100F4000A41E000000000000007E19000000002424
:100F50001C00721C00B21F00701F00861F000000E2
:100F60000000000000000000000000000000000081
:100F70000000000000000000000000000000000A67
:100F80001F00000000821E00601E00000000000024
:100F9000000A2D2D2D5043494520554152545320D0
:100FA000434F4D4D554E49434154494F4E20434FB9
:100FB00044452D2D2D0A0A000A2D2D2D534554553B
:100FC0005020434F4D504C4554452D2D2D0A0A00BD
:100FD000476F743A20002573000D00004450D96E0D
:100FE000DA6ADFCFF6FF0F0EF76E000EF86E08001C
:100FF000F550250AD8A4FFEF07F001EF08F0ACEF99
:1010000008F04450D96EDA6ADF2A000E0001E96F59
:10101000000EE86FE8C024F0EA69EB69000E476E45
:101020004450D96EDA6ADFCFF6FF0F0EF76E000E6E
:10103000F86E0800F550730AD8A421EF08F023EFEA
:1010400008F02BEF08F04450D96EDA6ADF2A010E5F
:10105000476E73EF08F04450D96EDA6ADFCFF6FFBF
:101060000F0EF76E000EF86E0800F5506C0AD8A44B
:101070003CEF08F03EEF08F073EF08F04450D96EF3
:10108000DA6ADF50466E010E462646C0F6FF0F0EA6
:10109000F76E000EF86E0800F5506C0AD8A453EFF6
:1010A00008F055EF08F073EF08F04450D96EDA6A93
:1010B000DF50466E020E462646C0F6FF0F0EF76E54
:1010C000000EF86E0800F550730AD8A46AEF08F015
:1010D0006CEF08F073EF08F04450D96EDA6A030E33
:1010E000DF2627EF08F04750D8B479EF08F07BEF00
:1010F00008F0A6EF08F04550D96EDA6A020EDF2636
:10110000DF5CD96EDA6ADECF48F0DECF49F098EFC7
:1011100008F048C0D9FF49C0DAFFDF50466E46509C
:101120003B6E3C6A43C03DF099EC0BF0484A492ABB
:1011300048C0D9FF49C0DAFFDF50D8A4A2EF08F0B9
:10114000A4EF08F089EF08F0BFEF08F04450D96E23
:10115000DA6ADF2ABFEF08F04450D96EDA6ADFCFCF
:10116000F6FF0F0EF76E000EF86E0800F5503B6E9E
:101170003C6A43C03DF099EC0BF0A6EF08F012007A
:1011800062EF09F012EC0EF00001D16F0D0ED119D3
:10119000D8B4CDEF08F0CFEF08F0E9EF08F00A0E71
:1011A000D119D8B4D6EF08F0D8EF08F0E9EF08F07D
:1011B000630EEE61DEEF08F0E0EF08F0E9EF08F013
:1011C000840EEE25D96EDA6A010EDA22D1C0DFFF75
:1011D000EE2B0A0ED119D8B4F0EF08F0F2EF08F0B8
:1011E000FBEF08F00D0ED119D8A4F9EF08F0FBEFD2
:1011F00008F062EF09F0840EEE25D96EDA6A010E6E
:10120000DA22DF6A6D0E4E6ED60E4F6E840E506E71
:10121000010E516EC5EC0EF0200E3B6E010E3C6EC1
:10122000840E3D6E010E3E6E000E406E640E3F6EEB
:10123000C3EC0DF0840E3B6E010E3C6E000E3E6E54
:10124000000E3D6E000E406E640E3F6EE1EC0EF03F
:101250006D0E3B6E3C6A000E3E6E000E3D6E000E43
:10126000406E640E3F6EE1EC0EF0D00E3D6E3D50D0
:10127000D8A40F0E3E6E3AEC0CF0200E3D6E010E1F
:101280003E6E3AEC0CF0200E3B6E010E3C6ED90E19
:101290003D6E38EC0DF0200E3D6E010E3E6E97EC6B
:1012A0000DF0200E3B6E010E3C6E000E3E6E000EE9
:1012B0003D6E000E406E640E3F6EE1EC0EF0000ECF
:1012C0000001EE6FD9EC0FF00009D8A46AEF09F025
:1012D0006CEF09F0C2EF08F0B60E3D6E3D50D8A499
:1012E0000F0E3E6E3AEC0CF01200FDEF09F0EBEC45
:1012F0000DF00001C46F0D0EC419D8B482EF09F0CF
:1013000084EF09F09EEF09F00A0EC419D8B48BEFF0
:1013100009F08DEF09F09EEF09F0630EEF6193EF96
:1013200009F095EF09F09EEF09F0640EEF25D96EF4
:10133000DA6A040EDA22C4C0DFFFEF2B0A0EC419EA
:10134000D8A4A5EF09F0A7EF09F0FDEF09F0000E12
:101350003C6E320E3B6E6BEC0DF0640E0001EF251F
:10136000D96EDA6A040EDA22DF6A000E3B6E040ED2
:101370003C6E640E3D6E040E3E6E000E406E640EBA
:101380003F6EC3EC0DF0640E3B6E040E3C6E000E1F
:101390003E6E000E3D6E000E406E640E3F6EE1EC40
:1013A0000EF0600E3B6E3C6A000E3E6E000E3D6E0F
:1013B000000E406E640E3F6EE1EC0EF0000E3D6ECE
:1013C000040E3E6E3AEC0CF0000E3B6E040E3C6ECA
:1013D000000E3E6E000E3D6E000E406E640E3F6EBF
:1013E000E1EC0EF0000E0001EF6FB60E3D6E3D50C9
:1013F000D8A40F0E3E6E3AEC0CF0ADEC0FF00009E5
:10140000D8A405EF0AF007EF0AF077EF09F0120011
:101410002F50020D000EF324D96E020EF420DA6E66
:10142000DE6ADD6A0E0198A318EF0AF01AEF0AF0DF
:101430003BEF0AF02F50020D000EF324D96E020E7E
:10144000F420DA6E0201DF84135014101510D8B4A2
:101450002CEF0AF02EEF0AF03BEF0AF002D83BEF38
:101460000AF00500FA6E1350FD6E1450FE6E155012
:10147000FF6EFA5012000E0198A541EF0AF043EFFB
:101480000AF064EF0AF02F50020D000EF324D96E1B
:10149000020EF420DA6E0201DF82165017101810C7
:1014A000D8B455EF0AF057EF0AF064EF0AF002D80B
:1014B00064EF0AF00500FA6E1650FD6E1750FE6ECE
:1014C0001850FF6EFA50120094CE33F02F287F0B85
:1014D000346E2E503418D8A470EF0AF072EF0AF070
:1014E00074EF0AF07FEF0AF0800E2F24D96EDA6ACB
:1014F000050EDA2233C0DFFF34C02FF02D2A195039
:101500001A101B10D8B487EF0AF089EF0AF096EF93
:101510000AF002D896EF0AF00500FA6E1950FD6E37
:101520001A50FE6E1B50FF6EFA5012001200295026
:10153000020D000EF324D96E030EF420DA6EDE6A7B
:10154000DD6A9CA2A6EF0AF0A8EF0AF0C9EF0AF044
:101550002950020D000EF324D96E030EF420DA6E2A
:101560000301DF840A500B100C10D8B4BAEF0AF054
:10157000BCEF0AF0C9EF0AF002D8C9EF0AF0050083
:10158000FA6E0A50FD6E0B50FE6E0C50FF6EFA5054
:1015900012009CA4CEEF0AF0D0EF0AF0F1EF0AF0AF
:1015A0002950020D000EF324D96E030EF420DA6EDA
:1015B0000301DF820D500E100F10D8B4E2EF0AF0D5
:1015C000E4EF0AF0F1EF0AF002D8F1EF0AF00500BB
:1015D000FA6E0D50FD6E0E50FE6E0F50FF6EFA50FB
:1015E000120098CF33F029287F0B346E285034181E
:1015F000D8A4FDEF0AF0FFEF0AF001EF0BF00CEFBB
:101600000BF0000E2924D96EDA6A050EDA2233C0F7
:10161000DFFF34C029F0272A105011101210D8B45F
:1016200014EF0BF016EF0BF023EF0BF002D823EFC3
:101630000BF00500FA6E1050FD6E1150FE6E125048
:10164000FF6EFA5012001200A2EC0FF0F28EF28C34
:101650000E0E3B6E200E3C6E000E3D6E370EF66E8B
:101660000F0EF76E000EF86E02D844EF0BF0050077
:10167000FA6E0900F550FD6E0900F550FE6E090086
:10168000F550FF6EFA501200140E3B6E200E3C6EA9
:10169000000E3D6E7F0EF66E0F0EF76E000EF86EAA
:1016A00002D860EF0BF00500FA6E0900F550FD6EF0
:1016B0000900F550FE6E0900F550FF6EFA50120059
:1016C0008284910E3D6E3D50D8A40F0E3E6E3AECD2
:1016D0000CF0B80E3D6E3D50D8A40F0E3E6E3AECA5
:1016E0000CF0520E536E2B0E526E000EE82EFED7EB
:1016F000522EFCD7532EFAD700D02550D8B483EF02
:101700000BF085EF0BF089EF0BF0000E256EC0ECAF
:1017100008F02650D8B48FEF0BF091EF0BF07DEF6F
:101720000BF0000E266E75EC09F07DEF0BF0B0EFBC
:1017300000F03D50D8B49FEF0BF0A1EF0BF0A9EFF4
:101740000BF03D50D8A4A7EF0BF0A9EF0BF0AEEFD4
:101750000BF03B5010EC10F0EDEF0BF03D50D96E5C
:10176000DA6A0A0ED926DE50DE10D8B4BAEF0BF0D2
:10177000BCEF0BF0D5EF0BF03D50D96EDA6A0A0ED4
:10178000D9263D50E16EE26A030EE126DE50E65CAA
:10179000E650800A426EDE50800A4258D8B0D3EF3D
:1017A0000BF0D5EF0BF0EDEF0BF03D50D96EDA6A90
:1017B000030ED926DF503E6E3D50D96EDA6ADF50F7
:1017C0003E24D96EDA6A3BC0DFFF3D50D96EDA6A3B
:1017D000030ED926DE2A000EDD221200000E826ED4
:1017E000000E836E000E846E000E0F010A6F000E55
:1017F000126F000E1A6FFB0E876EED0E886EFE0ED6
:10180000896EFB0E0C6FF40E146FFE0E1C6F000E33
:101810000B6F000E136F000E1B6F000E286F09690F
:1018200011691969086910691869080E256F0B0E8E
:101830000E01886F080EB06F0B0EEE6F090EEB6F86
:10184000000E0F01076F000E066F000E056F000EF1
:101850000F6F000E0E6F000E0D6F000E176F000E53
:10186000166F000E156F000E246F000E236F000E12
:10187000226F120065EF0CF0B8EC0FF00009D8B43D
:1018800044EF0CF046EF0CF03CEF0CF03DC0F6FFDF
:101890003EC0F7FF000EF86E0E0EF76403D008008E
:1018A000F55005D0F6CFE9FFF7CFEAFFEF5039EC5E
:1018B0000EF03D4A3E2AC3EC0FF00009D8B463EFA6
:1018C0000CF065EF0CF05BEF0CF03DC0F6FF3EC096
:1018D000F7FF000EF86E0E0EF76403D00800F55007
:1018E00005D0F6CFE9FFF7CFEAFFEF500009D8A403
:1018F0007CEF0CF07EEF0CF03CEF0CF012000E01D0
:10190000C09B2E0E0001F06F150EF16F000EF26FEE
:101910000E01C0992E0E0001F36F1E0EF46F000E23
:10192000F56F480E9E6E900E9C6E260E9D6E820E7A
:101930009A6E060E9B6E240E3B6E200E3C6E000EC1
:101940003D6E63EC0FF01A0E3B6E200E3C6E000EE7
:101950003D6E52EC0FF0000E0001ED6F000EEC6FCB
:10196000000E2C6E000E2B6E080E2A6E000E296ED5
:10197000000E286E000E276E0E01C08B12000E01A5
:10198000C09F100E0001E56F140EE66F000EE76FAA
:101990000E01C09DFA0E1F6E1D0E206E000E216EF0
:1019A000480E9A6F900E986F260E996F8A0E966F5A
:1019B000000E976F260E3B6E200E3C6E000E3D6EA5
:1019C00041EC0FF0060E3B6E200E3C6E000E3D6E9D
:1019D00030EC0FF0000E236E000E226E000E326E01
:1019E000000E316E080E306E000E2F6E000E2E6E41
:1019F000000E2D6E0E01C08F120005EE00F011EEEC
:101A000000F0EE6AE550E150FCE1E250FAE104EE4C
:101A100000F0C80EEE6AE806FDE103EE00F011EEFC
:101A200000F0EE6AE550E150FCE1E250FAE102EE2E
:101A300000F011EE00F0EE6AE550E150FCE1E250FA
:101A4000FAE101EE00F0E80EEE6AE806FDE100EED4
:101A5000D2F01E0EEE6AE806FDE100EE01F0320E55
:101A6000EE6AE806FDE154905492000124EF0BF079
:101A7000000E3F6E000E3E6E40EF0DF03E4A3F2AD4
:101A80003E503B24D96E3F503C20DA6EDF50D8A444
:101A90004CEF0DF04EEF0DF03EEF0DF053EF0DF06B
:101AA0003E4A3F2A3D2A3DC0F6FF0F0EF76E000E5C
:101AB000F86E3E503B24D96E3F503C20DA6E080051
:101AC000F5CFDFFFDF50D8A468EF0DF06AEF0DF01F
:101AD00050EF0DF01200000E3F6E000E3E6E8BEFC9
:101AE0000DF084B076EF0DF079EF0DF0010E7AEF86
:101AF0000DF0000EFF0A3D6E84503D18FE0B3D18A0
:101B0000846E150E3D6EC60EE82EFED73D2EFCD718
:101B100000D03E4A3F2A3B503E5C3C503F58D8A044
:101B200094EF0DF096EF0DF071EF0DF01200B6EF9F
:101B30000DF0CEEC0FF00009D8B4A1EF0DF0A3EF3B
:101B40000DF099EF0DF03DC0D9FF3EC0DAFFDF5038
:101B50005DEC0EF03D4A3E2AE4EC0FF00009D8B4EB
:101B6000B4EF0DF0B6EF0DF0ACEF0DF03DC0D9FFC6
:101B70003EC0DAFFDF50D8A4C0EF0DF0C2EF0DF089
:101B800099EF0DF012003DC044F03EC045F03BC05F
:101B900042F03CC043F0DDEF0DF044C0D9FF45C03A
:101BA000DAFFDF50416E444A452A42C0D9FF43C0A4
:101BB000DAFF41C0DFFF424A432A3F06D8A0400671
:101BC0003F2806E14028D8A4E8EF0DF0EAEF0DF039
:101BD000CDEF0DF01200000E2824D96EDA6A050E42
:101BE000DA22DF503C6E28287F0B3B6E3BC028F08A
:101BF0002850020D000EF324D96E030EF420DA6E85
:101C0000DECFECF0DDCFEDF00E01C09B2750D8B455
:101C10000CEF0EF00EEF0EF00FEF0EF02706C08B5C
:101C20003C501200800E2E24D96EDA6A050EDA229C
:101C3000DF503C6E2E287F0B3B6E3BC02EF02E50AB
:101C4000020D000EF324D96E020EF420DA6EDECF00
:101C500022F0DDCF23F00E01C09F2D50D8B433EF1A
:101C60000EF035EF0EF036EF0EF02D06C08F3C5023
:101C700012003C6E0E01C0BD40EF0EF042EF0EF0C0
:101C800046EF0EF03CC095FE5BEF0EF03050D8B43E
:101C90004CEF0EF04EEF0EF05BEF0EF03250DA0F1D
:101CA000D96EDA6A3CC0DFFF3228070B3B6E3BC0BF
:101CB00032F0C09D3006C08D12003C6E0E01C0B9DE
:101CC00064EF0EF066EF0EF06AEF0EF03CC099FF85
:101CD0007FEF0EF02A50D8B470EF0EF072EF0EF0D6
:101CE0007FEF0EF02C50D20FD96EDA6A3CC0DFFFC6
:101CF0002C28070B3B6E3BC02CF0C0992A06C089EC
:101D00001200F29A0E01C591F280000E3B6E000E99
:101D10003C6E000E3D6EFCEC0FF00E01C593F2829E
:101D2000000E3B6E000E3C6E000E3D6EF5EC0FF0AB
:101D30000E01C595F284000E3B6E000E3C6E000E47
:101D40003D6EEEEC0FF012004BC04DF0B0EF0EF018
:101D50004AC043F04D0E446E4CC045F0EEEC07F027
:101D60004DC0F6FF0F0EF76E000EF86E0800F5502E
:101D70000009D8A4BEEF0EF0C0EF0EF0A8EF0EF0F1
:101D8000000E4B6E000E4A6E1200500E0001606F86
:101D90004EC061F0000E656F000E646F000E6C6F38
:101DA000000E6B6F610E4A6E4FC04BF0600E4C6EB2
:101DB000A4EC0EF04E5000016425D96EDA6ADF6A99
:101DC00012003BC041F03CC042F0EFEF0EF041C0CA
:101DD000D9FF42C0DAFF3DC0DFFF414A422A3F0639
:101DE000D8A040063F2806E14028D8A4FAEF0EF01C
:101DF000FCEF0EF0E7EF0EF01200080E306003EF7C
:101E00000FF005EF0FF014EF0FF03150DA0FD96E2D
:101E1000DA6ADF500E01956F3128070B336E33C03D
:101E200031F0302A16EF0FF00E01C09D1200080E9F
:101E30002A601DEF0FF01FEF0FF02DEF0FF02B506A
:101E4000D20FD96EDA6ADF50996E2B28070B336EEA
:101E500033C02BF02A2A2FEF0FF00E01C099120089
:101E60003B503C103D10D8B438EF0FF03AEF0FF074
:101E700040EF0FF03BC013F03CC014F03DC015F034
:101E800012003B503C103D10D8B449EF0FF04BEF1F
:101E90000FF051EF0FF03BC016F03CC017F03DC003
:101EA00018F012003B503C103D10D8B45AEF0FF020
:101EB0005CEF0FF062EF0FF03BC00AF03CC00BF09C
:101EC0003DC00CF012003B503C103D10D8B46BEFFD
:101ED0000FF06DEF0FF073EF0FF03BC00DF03CC053
:101EE0000EF03DC00FF012003B503C103D10D8B436
:101EF0007CEF0FF07EEF0FF084EF0FF03BC010F09F
:101F00003CC011F03DC012F012003B503C103D109F
:101F1000D8B48DEF0FF08FEF0FF095EF0FF03BC0BF
:101F200019F03CC01AF03DC01BF01200600E0E010B
:101F3000D36F000ED56F000ED76F080ED96F000E4D
:101F4000D86F120096EC0FF0EEEC0BF07FEC0CF07B
:101F5000BFEC0CF081EC0EF012002750D8A4B3EFC8
:101F60000FF0B6EF0FF0010EB7EF0FF0000E1200FA
:101F70003050D8A4BEEF0FF0C1EF0FF0010EC2EF4A
:101F80000FF0000E12000E0199B3C9EF0FF0CCEF65
:101F90000FF0010ECDEF0FF0000E12002A50D8A462
:101FA000D4EF0FF0D7EF0FF0010ED8EF0FF0000EC7
:101FB00012002D50D8A4DFEF0FF0E2EF0FF0010E6A
:101FC000E3EF0FF0000E12009DB2E9EF0FF0ECEF1F
:101FD0000FF0010EEDEF0FF0000E12003BC001F00C
:101FE0003CC002F03DC003F012003BC004F03CC016
:101FF00005F03DC006F012003BC007F03CC008F001
:102000003DC009F012000E01989998891200010E46
:10201000266E1200010E256E12009C989C881200FC
:08202000120012001200120070
:020000040030CA
:0C0000008FFFFFFF9FFFFFFFFFFFFFFFD0
:00000001FF
